:100000000C9462000C948A000C948A000C948A0070
:100010000C948A000C948A000C948A000C948A0038
:100020000C948A000C948A000C948A000C948A0028
:100030000C948A000C948A000C948A000C948A0018
:100040000C941D030C948A000C948A000C948A0072
:100050000C948A000C948A000C948A000C948A00F8
:100060000C948A000C948A000000000024002700F1
:100070002A0000000000250028002B0000000000DE
:1000800023002600290004040404040404040202DA
:100090000202020203030303030301020408102007
:1000A0004080010204081020010204081020000012
:1000B0000008000201000003040700000000000027
:1000C0000000520411241FBECFEFD8E0DEBFCDBF29
:1000D00011E0A0E0B1E0E0EFF8E002C005900D9281
:1000E000AE38B107D9F721E0AEE8B1E001C01D920A
:1000F000AF3AB207E1F710E0C2E6D0E004C02197C2
:10010000FE010E947004C136D107C9F70E9467033F
:100110000C9476040C940000833081F028F4813034
:1001200099F08230A9F008958730A9F08830C9F09D
:100130008430B1F4809180008F7D03C08091800075
:100140008F7780938000089584B58F7784BD08955C
:1001500084B58F7DFBCF8091B0008F778093B00006
:1001600008958091B0008F7DF9CFCF93DF93282F32
:1001700030E0F901E255FF4F8491F901E656FF4F57
:10018000D491F901EA57FF4FC491CC23A1F081111A
:100190000E948C00EC2FF0E0EE0FFF1FE458FF4FA1
:1001A000A591B491EC91ED2381E090E009F480E019
:1001B000DF91CF91089580E090E0FACF1F93CF9325
:1001C000DF93282F30E0F901E255FF4F8491F901C8
:1001D000E656FF4FD491F901EA57FF4FC491CC2363
:1001E000A9F0162F81110E948C00EC2FF0E0EE0F89
:1001F000FF1FEE58FF4FA591B4918FB7F894EC9183
:10020000111108C0D095DE23DC938FBFDF91CF9111
:100210001F910895DE2BF8CFCF93DF9390E0FC0180
:10022000E656FF4F24918A579F4FFC018491882303
:10023000D1F090E0880F991FFC01E859FF4FA5917C
:10024000B491FC01EE58FF4FC591D49161110EC0DD
:100250009FB7F8948C91E22FE0958E238C932881A0
:10026000E223E8839FBFDF91CF9108958FB7F89481
:10027000EC91E22BEC938FBFF6CF3FB7F8948091CF
:10028000930190919401A0919501B091960126B5AA
:10029000A89B05C02F3F19F00196A11DB11D3FBFBE
:1002A000BA2FA92F982F8827BC01CD01620F711D8D
:1002B000811D911D42E0660F771F881F991F4A9587
:1002C000D1F70895AF92BF92CF92DF92EF92FF9253
:1002D0000F931F93CF93DF936C017B018B01040F6E
:1002E000151FEB015E01AE18BF08C017D10759F00A
:1002F0006991D601ED91FC910190F081E02DC6014C
:100300000995892B79F7C501DF91CF911F910F9145
:10031000FF90EF90DF90CF90BF90AF900895089539
:1003200090E080E00895CF93C82F61E083E00E94C1
:10033000DE0061E06C2784E00E94DE006C2F85E027
:10034000CF910C94DE0060E083E00E94DE0060E06C
:1003500084E00E94DE0060E085E00C94DE00CF9334
:10036000C82F682F8DE00E94DE006C2F86E0CF91B1
:100370000C94DE00FC0101900020E9F73197AF01F9
:10038000481B590BBC0187E991E00C946201CF93A3
:10039000DF93EC0160E08E810E94DE0061E08E81DF
:1003A0000E94DE0060E08E810E94DE008BE891E01A
:1003B0000197F1F7DF91CF910895CF92DF92EF92FD
:1003C000FF920F931F93CF93DF936C017C0187E023
:1003D000E80EF11CD0E0C0E0062F10E0B8010C2EB2
:1003E00002C0759567950A94E2F76170F7018191F3
:1003F0007F010E94DE002196C430D10579F7C60145
:10040000DF91CF911F910F91FF90EF90DF90CF90F0
:100410000C94C701CF92DF92EF92FF920F931F933C
:10042000CF93DF93EC01F62E642F8C810E94DE00C7
:100430008D818F3F19F060E00E94DE000F2D10E0EB
:100440008F8584FF25C06E0187E0C80ED11CF12C7A
:10045000E12CB8010E2C02C0759567950A94E2F75D
:100460006170F60181916F010E94DE00FFEFEF1ACB
:10047000FF0A88E0E816F10461F7CE01DF91CF9121
:100480001F910F91FF90EF90DF90CF900C94C701D8
:10049000B80184E0759567958A95E1F7CE010E94D1
:1004A000DD016F2DCE01DF91CF911F910F91FF9054
:1004B000EF90DF90CF900C94DD0140E0682F87E94A
:1004C00091E00C940A02CF93DF93823029F490914B
:1004D000A60198609093A6018093AA011092AB01A7
:1004E00080E48093AC0180E18093AD0180E580934E
:1004F000AE0161E080919B010E940C0180919C0102
:100500008F3F19F061E00E940C0161E080919D0134
:100510000E940C01C7E9D1E09E012759314080912A
:10052000A60184FD0BC084E090E0219628173907CE
:1005300044F461E08E810E940C01EECF88E090E0EF
:10054000F4CF8BE39DE00197F1F760E080919B0190
:100550000E94DE0060E080919D010E94DE0080919B
:100560009C018F3F19F060E00E94DE008091A6019F
:1005700084FD39C063E087E991E00E94DD01CBE4AE
:10058000D6E4CE010197F1F763E087E991E00E949C
:10059000DD012197F1F763E087E991E00E94DD0139
:1005A00083E592E00197F1F762E087E991E00E942C
:1005B000DD018091A60180620E945D0284E080934B
:1005C000A7018CE00E945D0281E00E945D028BE346
:1005D0009FE10197F1F782E08093A80186E0DF9127
:1005E000CF910C945D0280620E945D028BE496E4E0
:1005F0000197F1F78091A60180620E945D0283E578
:1006000092E00197F1F78091A60180620E945D025D
:10061000D0CFE091AA01E23040F4E150F0E0E95699
:10062000FE4F848980680C945D02E1E0F7CF41E0E1
:100630000E940A0281E090E008951F920F920FB687
:100640000F9211242F933F938F939F93AF93BF9358
:1006500080918F0190919001A0919101B0919201B0
:1006600030918E0123E0230F2D3758F50196A11DFF
:10067000B11D20938E0180938F0190939001A093E0
:100680009101B09392018091930190919401A09176
:100690009501B09196010196A11DB11D8093930122
:1006A00090939401A0939501B0939601BF91AF915F
:1006B0009F918F913F912F910F900FBE0F901F90A0
:1006C000189526E8230F0296A11DB11DD2CF78946C
:1006D00084B5826084BD84B5816084BD85B5826047
:1006E00085BD85B5816085BD80916E0081608093F8
:1006F0006E00109281008091810082608093810061
:100700008091810081608093810080918000816070
:10071000809380008091B10084608093B1008091CB
:10072000B00081608093B00080917A0084608093F3
:100730007A0080917A00826080937A0080917A00BA
:10074000816080937A0080917A00806880937A003B
:100750001092C10061E08DE00E940C0161E086E032
:100760000E940C0161E083E00E940C0161E084E0E2
:100770000E940C0161E085E00E940C0160E08FE0C6
:100780000E940C0160E082E00E940C0160E08EE0BB
:100790000E940C0180E00E94AF010E94A30182E050
:1007A0000E946302CBE3DFE100E010E081E00E9401
:1007B0005D02CE010197F1F782E00E94B500892B1E
:1007C00009F442C00E94A30181E00E94AF018CE0C5
:1007D00091E00E94BA010E9409038EE00E94B500D8
:1007E000892B79F18DE191E00E94BA010E943D01CF
:1007F0004B015C0184E6C82ED12CE12CF12C0E9427
:100800003D01681979098A099B09683E7340810591
:100810009105A8F321E0C21AD108E108F10888EE99
:10082000880E83E0981EA11CB11CC114D104E10400
:10083000F10429F70115110509F4B8CF0E94000051
:10084000B5CF8EE291E0D0CF80E00E94AF018EE084
:100850000E94B500892BC9F08FE391E00E94BA0194
:100860000E9409038FE00E94B500892B41F080E5CA
:1008700091E00E94BA0181E00E949301B7CF81E626
:1008800091E00E94BA0180E0F7CF82E791E00E94F8
:10089000BA010E9409038DE791E00E94BA010E940B
:1008A000A301A4CFE7E9F1E01382128284E091E092
:1008B000918380838CE084838FEF85838BE08683B4
:1008C0008AE0878389E0808788E0818787E0828764
:1008D0001386148615861686178681E00C946302AB
:1008E000EE0FFF1F0590F491E02D0994F894FFCFCF
:1008F000000000001703620190018F01414C434F3B
:10090000484F4C204445544543544544004F5045BE
:10091000524154494F4E2044454E494544004F50A2
:10092000455241544F5220464C4147474544004EA2
:100930004F524D414C204F5045524154494F4E006B
:1009400052455645525345204449524543544F4E13
:1009500000464F5257415244204449524543544F58
:100960004E0049444C4520535441544500204D41CC
:0E0970004348494E452052454144592000005D
:00000001FF
